:1000000065C00000E5C30000EDC30000F5C30000BB
:10001000FDC3000005C400000DC4000015C40000AD
:100020001DC4000025C400002DC4000035C400001C
:100030003DC4000045C400004DC4000055C400008C
:10004000B8C40000C0C40000C8C40000EEC4000072
:10005000F6C40000FEC4000006C500000EC5000086
:1000600016C500001EC5000026C500002EC50000F4
:1000700036C500003EC5000046C5000089C5000029
:1000800091C5000099C50000A1C50000001F000037
:1000900000001F00001F101010101F00001F181874
:1000A00018181F00001F1C1C1C1C1F00001F1E1EF8
:1000B0001E1E1F00001F1F1F1F1F1F0003070F1FF3
:1000C0000F070300181C1E1F1E1C180011241FBE42
:1000D000CFEFD0E1DEBFCDBF11E0A0E0B1E0E0E6C0
:1000E000F5E100E00BBF02C007900D92A839B107FF
:1000F000D9F721E0A8E9B1E001C01D92AD3FB207F8
:10010000E1F760D20C94AE0A83B7856083BF83B7F2
:10011000886083BF8DE781BF87B7826087BF0895FE
:100120008FE38ABB80EC8BBB17BA8FEF88BB089537
:10013000FC01808190E0809590959C0102C03595EE
:1001400027956A95E2F7B9016370613039F0623042
:1001500041F0633049F482E090E008958FEF9FEF23
:10016000089581E090E0089580E090E008950F9375
:100170001F93861B970B809FB001819F700D909FEE
:10018000700D1124CB01772324F488279927861B2F
:10019000970B8417950768F08217930728F0772349
:1001A0005CF48EEF9FEF0DC077234CF48FEF9FEF41
:1001B00008C080E090E005C082E090E002C081E0ED
:1001C00090E01F910F910895009771F09C01992381
:1001D00024F422273327281B390B81E090E02230BA
:1001E000310524F080E0089581E090E0089582E3F5
:1001F00090E09093A8018093A7018CE291E0909306
:10020000A6018093A50180E092E09093B4018093D1
:10021000B3018AE090E09093A4018093A30181E070
:100220008093A20108952AD52FEF83EC99E0215005
:1002300080409040E1F700C0000060E085E03ED5DE
:100240008AE091E01ED561E084E038D584E191E058
:1002500018D563E084E032D581E291E012D52FEF2A
:1002600087EA91E6215080409040E1F700C000000D
:1002700005C5089560E080E021D58EE291E001D5CA
:1002800062E080E01BD583E491E0FBC408958F9287
:100290009F92AF92BF92CF92DF92EF92FF920F9315
:1002A0001F93CF93DF9300D000D01F92CDB7DEB75E
:1002B000982E892EB62EA72ED42EC52EF22EE32EE2
:1002C00061E080E0FBD4EF92FF9228E531E03F93BC
:1002D0002F93CE0101967C01FF928F937DD6C701AB
:1002E000D0D461E087E0EAD4CF92DF920F2EFCE514
:1002F000CF2EF1E0DF2EF02DDF92CF92FF92EF9222
:100300006BD6C701BED461E081E1D8D41F930F93AF
:1003100000E611E01F930F93FF92EF925DD6C701A5
:10032000B0D463E081E0CAD48F929F921F930F9361
:10033000FF92EF9251D6C701A4D463E088E0BED407
:10034000AF92BF92DF92CF92FF92EF9245D6C70154
:1003500098D40FB6F894DEBF0FBECDBF0F900F90AC
:100360000F900F900F90DF91CF911F910F91FF9001
:10037000EF90DF90CF90BF90AF909F908F900895B7
:10038000CF92DF92EF92FF920F931F93CF93DF9361
:10039000EC0101E010E020E041E050E060E070E0BE
:1003A0006DD50BC080919D01882339F083E691E0E3
:1003B00092D5CE0155D510929D0166E089E390E07B
:1003C000B7DE019779F701E010E020E04FEF5FEF33
:1003D00060E070E0CE0152D58DE691E07CD51BC087
:1003E00080919D018823B9F0CE013AD510929D01EC
:1003F0008091980190919901A0919A01B0919B01EF
:100400000196A11DB11D8093980190939901A0932D
:100410009A01B0939B0166E089E390E089DE019642
:10042000F9F680919B018F9380919A018F9380912F
:1004300099018F93809198018F9388E791E09F9322
:100440008F9385EB91E09F938F93C6D585EB91E0D9
:1004500042D58091980190919901A0919A01B09113
:100460009B01B695A7959795879580939801909352
:100470009901A0939A01B0939B0101E010E020E064
:1004800041E050E060E070E0CE01F8D48DE791E00B
:1004900022D58DB79EB708960FB6F8949EBF0FBEB3
:1004A0008DBFC12CD12C76010DC080919D01882378
:1004B000E1F3CE01D5D410929D019FEFC91AD90A5C
:1004C000E90AF90A8091980190919901A0919A0105
:1004D000B0919B018C159D05AE05BF0530F7FF92CD
:1004E000EF92DF92CF9288E791E09F938F9385EB15
:1004F00091E09F938F9370D585EB91E0ECD489E8E0
:1005000091E0E9D48DB79EB708960FB6F8949EBFD8
:100510000FBE8DBFDF91CF911F910F91FF90EF9094
:10052000DF90CF900895CF92DF92EF92FF920F93DA
:100530001F93CF93DF93EC0101E010E020E041E056
:1005400050E060E070E09AD408C080919D0188235B
:1005500021F0CE0185D410929D0166E089E390E000
:10056000E7DD019791F701E010E020E04FEF5FEF4A
:1005700060E070E0CE0182D4C12CD12C7601809154
:100580009D018823E1F3CE016BD410929D018FEF82
:10059000C81AD80AE80AF80A80919801909199013E
:1005A000A0919A01B0919B018C159D05AE05BF05E8
:1005B00030F7DF91CF911F910F91FF90EF90DF9077
:1005C000CF900895CF93DF93CDB7DEB765970FB681
:1005D000F894DEBF0FBECDBF6BE3CE010196F3D31F
:1005E00048E966E080E190E065D49ADD8DDD48EC75
:1005F00060E480E8C6D092D341D315DE3BDEF7DD60
:1006000078948FE891E067D4CE010196B9DE2FEFA0
:100610008BE792E9215080409040E1F700C0000054
:10062000CE01019680DFAA24A394B12C80919F0172
:10063000882309F454C00091A201112707FD1095E9
:10064000C090A501D090A601E090A701F090A8016C
:1006500081E0A6D09601A701BC018091B3019091E1
:10066000B40185DD8C01B0DDD82E66E089E390E031
:100670005FDD7C01009749F160E070E0CE010196FA
:1006800012D41E141F043CF04F2D440F440B552769
:1006900047FD509502C04A2D5B2D101611063CF007
:1006A000212F220F220B332727FD309502C02A2D40
:1006B0003B2D4217530789F0B801CE010196F3D3C1
:1006C0006D2DCE010196E9D308C0B801CE01019687
:1006D000EAD36D2DCE010196E0D310929F01809157
:1006E0009D01882329F0CE010196BAD310929D0175
:1006F00080919C01882309F499CF0091A2011127D0
:1007000007FD1095C090A501D090A601E090A7012B
:10071000F090A80181E044D09601A701BC0180912E
:10072000B3019091B401B3DD10929C017FCF282FCB
:1007300030E0A8EEB3E041D49B01AC0160E074E28C
:1007400084EF90E018D4222374F0223070F024302B
:1007500070F0283070F0203170F0203270F02034CA
:1007600070F486E0089587E0089581E0089582E0BE
:10077000089583E0089584E0089585E0089587E072
:100780000895CF93DF93C62F96B1892B86B9D6B142
:10079000842FCDDF8D2B86B9C7B9DF91CF91089516
:1007A00097B18770987F982B97B9369A3699FECF74
:1007B00084B125B190E0922B089580E090E0FC0197
:1007C000E653FE4F1082019682339105C1F70895DA
:1007D0001F920F920FB60F9211240F900FBE0F9021
:1007E0001F9018951F920F920FB60F9211240F9021
:1007F0000FBE0F901F9018951F920F920FB60F9279
:1008000011240F900FBE0F901F9018951F920F92FA
:100810000FB60F9211240F900FBE0F901F901895D6
:100820001F920F920FB60F9211240F900FBE0F90D0
:100830001F9018951F920F920FB60F9211240F90D0
:100840000FBE0F901F9018951F920F920FB60F9228
:1008500011240F900FBE0F901F9018951F920F92AA
:100860000FB60F9211240F900FBE0F901F90189586
:100870001F920F920FB60F9211240F900FBE0F9080
:100880001F9018951F920F920FB60F9211240F9080
:100890000FBE0F901F9018951F920F920FB60F92D8
:1008A00011240F900FBE0F901F9018951F920F925A
:1008B0000FB60F9211240F900FBE0F901F90189536
:1008C0001F920F920FB60F9211240F900FBE0F9030
:1008D0001F9018951F920F920FB60F9211240F9030
:1008E0000FBE0F901F9018951F920F920FB60F9288
:1008F00011242F933F935F936F937F938F939F93D5
:10090000AF93BF932091A0013091A1012F5F3F4F82
:100910003093A1012093A001609104017091050121
:10092000C90115D3892B29F480919F018F5F809392
:100930009F016091080170910901C90108D3892BB9
:1009400029F480919E018F5F80939E016091060142
:1009500070910701C901FBD2892B29F480919D0177
:100960008F5F80939D016091020170910301C90125
:10097000EED2892B29F480919C018F5F80939C019A
:1009800080910001909101018217930720F4109249
:10099000A1011092A001BF91AF919F918F917F9182
:1009A0006F915F913F912F910F900FBE0F901F900D
:1009B00018951F920F920FB60F9211240F900FBE31
:1009C0000F901F9018951F920F920FB60F9211243F
:1009D0000F900FBE0F901F9018951F920F920FB699
:1009E0000F9211240BB60F922F933F934F935F9367
:1009F0006F937F938F939F93AF93BF93EF93FF93E7
:100A0000A2D261D2FF91EF91BF91AF919F918F914F
:100A10007F916F915F914F913F912F910F900BBEFE
:100A20000F900FBE0F901F9018951F920F920FB648
:100A30000F9211240F900FBE0F901F9018951F92C8
:100A40000F920FB60F9211240F900FBE0F901F90B0
:100A500018951F920F920FB60F9211240F900FBE90
:100A60000F901F9018951F920F920FB60F9211249E
:100A70000F900FBE0F901F9018951F920F920FB6F8
:100A80000F9211240F900FBE0F901F9018951F9278
:100A90000F920FB60F9211240F900FBE0F901F9060
:100AA00018951F920F920FB60F9211240F900FBE40
:100AB0000F901F9018951F920F920FB60F9211244E
:100AC0000F900FBE0F901F9018951F920F920FB6A8
:100AD0000F9211240F900FBE0F901F9018951F9228
:100AE0000F920FB60F9211240F900FBE0F901F9010
:100AF00018951F920F920FB60F9211240F900FBEF0
:100B00000F901F9018951F920F920FB60F921124FD
:100B10000BB60F922F933F934F935F936F937F93F7
:100B20008F939F93AF93BF93CF93EF93FF93FFD197
:100B3000C82F05D2CC3731F41092FC0181E08093AC
:100B4000C90112C0E091FC01F0E0E653FE4FC08302
:100B50008091FC018F5F8093FC018091FC018433C4
:100B600018F01092FC0129DEFF91EF91CF91BF9117
:100B7000AF919F918F917F916F915F914F913F9135
:100B80002F910F900BBE0F900FBE0F901F901895D6
:100B90001F920F920FB60F9211240F900FBE0F905D
:100BA0001F9018951F920F920FB60F9211240F905D
:100BB0000FBE0F901F9018951F920F920FB60F92B5
:100BC00011240F900FBE0F901F9018951F920F9237
:100BD0000FB60F9211240F900FBE0F901F90189513
:100BE000982F907F95BBA89AAA9AEFE8F1E03197E9
:100BF000F1F700C00000AA98A898EFE8F1E031975B
:100C0000F1F700C00000F0E18F9FC001112485BB07
:100C1000A89AAA9A8FE891E00197F1F700C0000026
:100C2000AA98A898EFE8F1E03197F1F700C000002A
:100C30000895982F907F95BBAA9AEFE8F1E031973D
:100C4000F1F700C00000AA98EFE8F1E03197F1F762
:100C500000C00000F0E18F9FC001112485BBAA9A5B
:100C60008FE891E00197F1F700C00000AA98EFE843
:100C7000F1E03197F1F700C00000089581E0D9CF8D
:100C800008950F931F93CF93DF93FC0101900020F1
:100C9000E9F731971E2F181B009759F0112349F0DF
:100CA000082FC02FD92F89919BDF8C2F801B811794
:100CB000D0F3DF91CF911F910F910895623031F001
:100CC000633031F0613029F4805C03C08C5E01C078
:100CD0008C5A8068AECF0895EF92FF920F931F93C6
:100CE000CF93DF938C01660F660F660F6064E62E6C
:100CF000C0E0D0E0F801EC0FFD1FF4908C2F8E0DBA
:100D000098DF8F2D6DDF2196C830D10599F7DF91DF
:100D1000CF911F910F91FF90EF9008951F93CF9364
:100D2000DF938FE697E10197F1F700C0000015BA55
:100D300015BA84B3806F84BB84B3876084BB80E3BF
:100D400085BBAA9A8FE891E00197F1F700C00000F7
:100D5000AA988FE891E00197F1F700C0000080E3C6
:100D600085BBAA9A8FE891E00197F1F700C00000D7
:100D7000AA988FE891E00197F1F700C0000080E2A7
:100D800085BBAA9A8FE891E00197F1F700C00000B7
:100D9000AA988FE891E00197F1F700C0000088E27F
:100DA00048DF8CE046DFCCE8D0E060E011E0160FD1
:100DB000CE0192DF2896183011F0612FF7CFDF9126
:100DC000CF911F910895FC01128213821682158221
:100DD00081E0848370E071836083168608958FE8D4
:100DE00091E00197F1F700C00000DD9A8FE891E0F3
:100DF0000197F1F700C00000DD980895FC0185819E
:100E00009681992314F4128202C081E08283848146
:100E100083830895CF93DF93EC01F0DFE881F981BC
:100E20002B81220F8A8130E1839FC0011124822B04
:100E30009885892B8083DF91CF910895FC01868569
:100E400018166CF4878590899683858385858483BD
:100E500082898087838994899287818716860895FD
:100E6000CF93DF93EC01EADF8D819E81892B19F00E
:100E7000CE01D0DFB4DFDF91CF9108950F931F93A0
:100E8000FC01508B47872587628B148B038B8685EB
:100E90008F5F86871F910F910895FC016587868576
:100EA0008F5F86870895FC01708B678786858F5FCB
:100EB00086870895909398008093990040939A00B4
:100EC00060939D000895EBE9F0E0908195FFFDCFE0
:100ED00080939C000895EF92FF920F931F93CF93FE
:100EE000DF93FC01DC010D900020E9F711977D01F3
:100EF000E81AF90A1E141F049CF48081882381F0EB
:100F00008F010F5F1F4FC0E0D0E005C0F801819155
:100F10008F01882329F0D7DF2196EC16FD06B1F763
:100F2000DF91CF911F910F91FF90EF900895EBE922
:100F3000F0E080818823ECF780919C0008955D9B10
:100F4000FECF8CB908955F9BFECF8CB10895AA1B8C
:100F5000BB1B51E107C0AA1FBB1FA617B70710F0A4
:100F6000A61BB70B881F991F5A95A9F780959095D6
:100F7000BC01CD010895A1E21A2EAA1BBB1BFD01E5
:100F80000DC0AA1FBB1FEE1FFF1FA217B307E40768
:100F9000F50720F0A21BB30BE40BF50B661F771FC0
:100FA000881F991F1A9469F76095709580959095A0
:100FB0009B01AC01BD01CF010895A29FB001B39F79
:100FC000C001A39F700D811D1124911DB29F700D52
:100FD000811D1124911D08950F931F93CF93DF93CB
:100FE000CDB7DEB72E970FB6F894DEBF0FBECDBFDC
:100FF0000D891E8986E08C831A8309838FEF9FE712
:101000009E838D83AE01475E5F4F6F89788DCE01E1
:10101000019610D0EF81F885E00FF11F10822E9617
:101020000FB6F894DEBF0FBECDBFDF91CF911F91F9
:101030000F9108952F923F924F925F926F927F92FD
:101040008F929F92AF92BF92CF92DF92EF92FF92D8
:101050000F931F93CF93DF93CDB7DEB72C970FB6C7
:10106000F894DEBF0FBECDBF7C016B018A01FC018D
:1010700017821682838181FFB0C1CE0101964C0197
:10108000F7019381F60193FD859193FF81916F01A3
:10109000882309F49EC1853239F493FD859193FF2D
:1010A00081916F01853221F4B70190E0C7D1E8CF7B
:1010B000512C312C20E02032A0F48B3269F030F436
:1010C000803259F0833269F420612CC08D3239F0BE
:1010D000803339F4216026C02260246023C0286058
:1010E00021C027FD27C030ED380F3A3078F426FFB5
:1010F00006C0FAE05F9E300D1124532E13C08AE023
:10110000389E300D1124332E20620CC08E3221F413
:1011100026FD5FC1206406C08C3611F4206802C031
:10112000883641F4F60193FD859193FF81916F011B
:101130008111C1CF982F9F7D9554933028F40C5F77
:101140001F4FFFE3F9830DC0833631F0833771F011
:10115000833509F057C021C0F801808189830E5F73
:101160001F4F44244394512C540114C03801F2E021
:101170006F0E711CF801A080B18026FF03C0652DA1
:1011800070E002C06FEF7FEFC5012C874CD12C01BE
:1011900083012C852F77222E16C03801F2E06F0EC6
:1011A000711CF801A080B18026FF03C0652D70E09E
:1011B00002C06FEF7FEFC5012C872AD12C012C854F
:1011C0002068222E830123FC19C0832D90E048164D
:1011D0005906A0F4B70180E290E030D13A94F5CFFF
:1011E000F50127FC859127FE81915F01B70190E011
:1011F00025D131103A94F1E04F1A510841145104AD
:1012000079F7DEC0843611F0893631F5F80127FF11
:1012100007C060817181828193810C5F1F4F08C07C
:1012200060817181882777FD8095982F0E5F1F4F11
:101230002F76B22E97FF09C0909580957095619595
:101240007F4F8F4F9F4F2068B22E2AE030E0A401DD
:1012500027D1A82EA81843C0853729F42F7EB22E97
:101260002AE030E025C0F22FF97FBF2E8F36C1F083
:1012700018F4883579F0ADC0803719F0883721F03F
:10128000A8C02F2F2061B22EB4FE0DC08B2D84601C
:10129000B82E09C024FF0AC09F2F9660B92E06C041
:1012A00028E030E005C020E130E002C020E132E07B
:1012B000F801B7FE07C060817181828193810C5F64
:1012C0001F4F06C06081718180E090E00E5F1F4F6C
:1012D000A401E6D0A82EA818FB2DFF77BF2EB6FEDE
:1012E0000BC02B2D2E7FA51450F4B4FE0AC0B2FC07
:1012F00008C02B2D2E7E05C07A2C2B2D03C07A2CF6
:1013000001C0752C24FF0DC0FE01EA0DF11D808186
:10131000803311F4297E09C022FF06C073947394B0
:1013200004C0822F867809F0739423FD12C020FF39
:1013300006C05A2C731418F4530C5718732C7314DA
:1013400060F4B70180E290E02C8778D073942C850C
:10135000F6CF731410F4371801C0312C24FF11C0DC
:10136000B70180E390E02C8769D02C8522FF16C05E
:1013700021FF03C088E590E002C088E790E0B70154
:101380000CC0822F867851F021FD02C080E201C09E
:101390008BE227FD8DE2B70190E050D0A51430F428
:1013A000B70180E390E04AD05A94F8CFAA94F401B0
:1013B000EA0DF11D8081B70190E040D0A110F6CF79
:1013C000332009F45DCEB70180E290E037D03A9443
:1013D000F7CFF7018681978102C08FEF9FEF2C96A0
:1013E0000FB6F894DEBF0FBECDBFDF91CF911F9136
:1013F0000F91FF90EF90DF90CF90BF90AF909F90B4
:101400008F907F906F905F904F903F902F900895B6
:10141000FC010590615070400110D8F780959095BF
:101420008E0F9F1F0895FC016150704001900110C4
:10143000D8F7809590958E0F9F1F08950F931F9357
:10144000CF93DF93182F092FEB018B8181FD03C010
:101450008FEF9FEF20C082FF10C04E815F812C81F3
:101460003D81421753077CF4E881F9819F012F5F8A
:101470003F4F39832883108306C0E885F985812F83
:101480000995892B29F72E813F812F5F3F4F3F839D
:101490002E83812F902FDF91CF911F910F9108956F
:1014A000FA01AA27283051F1203181F1E8946F9395
:1014B0006E7F6E5F7F4F8F4F9F4FAF4FB1E03ED03B
:1014C000B4E03CD0670F781F891F9A1FA11D680FD9
:1014D000791F8A1F911DA11D6A0F711D811D911D0C
:1014E000A11D20D009F468943F912AE0269F112481
:1014F0003019305D3193DEF6CF010895462F4770E5
:10150000405D4193B3E00FD0C9F7F6CF462F4F703F
:10151000405D4A3318F0495D31FD4052419302D09D
:10152000A9F7EACFB4E0A695979587957795679543
:10153000BA95C9F700976105710508959B01AC0143
:101540000A2E06945795479537952795BA95C9F76A
:10155000620F731F841F951FA01D0895F894FFCF7D
:101560008813F40164000200640057454220475587
:101570004944450048534F2026204E454C534F4E7A
:101580000056657273696F6E3A20312E300020204C
:101590005448202020202020544C2020202020208F
:1015A0004920002052454620202020464545442021
:1015B000202020205820200025336400253464009A
:1015C000256400444952454954410D0A0045535190
:1015D00055455244410D0A0025750D0A0043454EFC
:1015E0005452414E444F0D0A00454E440D0A0048E6
:0815F000454C4C4F0A0D0000B0
:00000001FF
